{
  "contractName": "Marketplace",
  "abi": [
    {
      "inputs": [
        {
          "internalType": "contract MintableToken",
          "name": "_mintableToken",
          "type": "address"
        },
        {
          "internalType": "address",
          "name": "_wareToken",
          "type": "address"
        }
      ],
      "stateMutability": "nonpayable",
      "type": "constructor"
    },
    {
      "anonymous": false,
      "inputs": [
        {
          "indexed": true,
          "internalType": "address",
          "name": "owner",
          "type": "address"
        },
        {
          "indexed": true,
          "internalType": "uint256",
          "name": "nftId",
          "type": "uint256"
        },
        {
          "indexed": false,
          "internalType": "uint256",
          "name": "price",
          "type": "uint256"
        }
      ],
      "name": "Listing",
      "type": "event"
    },
    {
      "anonymous": false,
      "inputs": [
        {
          "indexed": true,
          "internalType": "address",
          "name": "previousOwner",
          "type": "address"
        },
        {
          "indexed": true,
          "internalType": "address",
          "name": "newOwner",
          "type": "address"
        }
      ],
      "name": "OwnershipTransferred",
      "type": "event"
    },
    {
      "anonymous": false,
      "inputs": [
        {
          "indexed": true,
          "internalType": "address",
          "name": "owner",
          "type": "address"
        },
        {
          "indexed": true,
          "internalType": "uint256",
          "name": "nftId",
          "type": "uint256"
        },
        {
          "indexed": false,
          "internalType": "uint256",
          "name": "oldPrice",
          "type": "uint256"
        },
        {
          "indexed": false,
          "internalType": "uint256",
          "name": "newPrice",
          "type": "uint256"
        }
      ],
      "name": "PriceUpdated",
      "type": "event"
    },
    {
      "anonymous": false,
      "inputs": [
        {
          "indexed": true,
          "internalType": "address",
          "name": "previousOwner",
          "type": "address"
        },
        {
          "indexed": true,
          "internalType": "address",
          "name": "newOwner",
          "type": "address"
        },
        {
          "indexed": true,
          "internalType": "uint256",
          "name": "nftId",
          "type": "uint256"
        },
        {
          "indexed": false,
          "internalType": "uint256",
          "name": "listingPrice",
          "type": "uint256"
        },
        {
          "indexed": false,
          "internalType": "uint256",
          "name": "sellerAmount",
          "type": "uint256"
        },
        {
          "indexed": false,
          "internalType": "uint256",
          "name": "buyerAmount",
          "type": "uint256"
        }
      ],
      "name": "Purchase",
      "type": "event"
    },
    {
      "anonymous": false,
      "inputs": [
        {
          "indexed": true,
          "internalType": "address",
          "name": "owner",
          "type": "address"
        },
        {
          "indexed": true,
          "internalType": "uint256",
          "name": "nftId",
          "type": "uint256"
        }
      ],
      "name": "Unlisting",
      "type": "event"
    },
    {
      "inputs": [],
      "name": "defaultFees",
      "outputs": [
        {
          "internalType": "uint16",
          "name": "seller",
          "type": "uint16"
        },
        {
          "internalType": "uint16",
          "name": "buyer",
          "type": "uint16"
        }
      ],
      "stateMutability": "view",
      "type": "function"
    },
    {
      "inputs": [
        {
          "internalType": "uint256",
          "name": "",
          "type": "uint256"
        }
      ],
      "name": "items",
      "outputs": [
        {
          "internalType": "address",
          "name": "owner",
          "type": "address"
        },
        {
          "internalType": "uint256",
          "name": "price",
          "type": "uint256"
        }
      ],
      "stateMutability": "view",
      "type": "function"
    },
    {
      "inputs": [],
      "name": "mintableToken",
      "outputs": [
        {
          "internalType": "contract MintableToken",
          "name": "",
          "type": "address"
        }
      ],
      "stateMutability": "view",
      "type": "function"
    },
    {
      "inputs": [],
      "name": "owner",
      "outputs": [
        {
          "internalType": "address",
          "name": "",
          "type": "address"
        }
      ],
      "stateMutability": "view",
      "type": "function"
    },
    {
      "inputs": [],
      "name": "renounceOwnership",
      "outputs": [],
      "stateMutability": "nonpayable",
      "type": "function"
    },
    {
      "inputs": [
        {
          "internalType": "address",
          "name": "newOwner",
          "type": "address"
        }
      ],
      "name": "transferOwnership",
      "outputs": [],
      "stateMutability": "nonpayable",
      "type": "function"
    },
    {
      "inputs": [],
      "name": "wareToken",
      "outputs": [
        {
          "internalType": "address",
          "name": "",
          "type": "address"
        }
      ],
      "stateMutability": "view",
      "type": "function"
    },
    {
      "inputs": [
        {
          "internalType": "uint256",
          "name": "_nftId",
          "type": "uint256"
        },
        {
          "internalType": "uint256",
          "name": "_amount",
          "type": "uint256"
        }
      ],
      "name": "listing",
      "outputs": [],
      "stateMutability": "nonpayable",
      "type": "function"
    },
    {
      "inputs": [
        {
          "internalType": "uint256",
          "name": "_nftId",
          "type": "uint256"
        }
      ],
      "name": "unlisting",
      "outputs": [],
      "stateMutability": "nonpayable",
      "type": "function"
    },
    {
      "inputs": [
        {
          "internalType": "uint256",
          "name": "_nftId",
          "type": "uint256"
        }
      ],
      "name": "buy",
      "outputs": [],
      "stateMutability": "nonpayable",
      "type": "function"
    },
    {
      "inputs": [
        {
          "internalType": "uint256",
          "name": "_nftId",
          "type": "uint256"
        },
        {
          "internalType": "uint256",
          "name": "_price",
          "type": "uint256"
        }
      ],
      "name": "updatePrice",
      "outputs": [],
      "stateMutability": "nonpayable",
      "type": "function"
    }
  ],
  "bytecode": "0x60806040523480156200001157600080fd5b5060405162001dec38038062001dec83398181016040528101906200003791906200025c565b620000576200004b6200016260201b60201c565b6200016a60201b60201c565b6001808190555081600260006101000a81548173ffffffffffffffffffffffffffffffffffffffff021916908373ffffffffffffffffffffffffffffffffffffffff16021790555080600360006101000a81548173ffffffffffffffffffffffffffffffffffffffff021916908373ffffffffffffffffffffffffffffffffffffffff16021790555060405180604001604052806101f461ffff1681526020016101f461ffff16815250600460008201518160000160006101000a81548161ffff021916908361ffff16021790555060208201518160000160026101000a81548161ffff021916908361ffff16021790555090505066038d7ea4c68000600581905550505062000319565b600033905090565b60008060009054906101000a900473ffffffffffffffffffffffffffffffffffffffff169050816000806101000a81548173ffffffffffffffffffffffffffffffffffffffff021916908373ffffffffffffffffffffffffffffffffffffffff1602179055508173ffffffffffffffffffffffffffffffffffffffff168173ffffffffffffffffffffffffffffffffffffffff167f8be0079c531659141344cd1fd0a4f28419497f9722a3daafe3b4186f6b6457e060405160405180910390a35050565b6000815190506200023f81620002e5565b92915050565b6000815190506200025681620002ff565b92915050565b600080604083850312156200027057600080fd5b6000620002808582860162000245565b925050602062000293858286016200022e565b9150509250929050565b6000620002aa82620002c5565b9050919050565b6000620002be826200029d565b9050919050565b600073ffffffffffffffffffffffffffffffffffffffff82169050919050565b620002f0816200029d565b8114620002fc57600080fd5b50565b6200030a81620002b1565b81146200031657600080fd5b50565b611ac380620003296000396000f3fe608060405234801561001057600080fd5b50600436106100a95760003560e01c806395d38ea81161007157806395d38ea81461012d578063ba5fb8281461014b578063bfb231d214610167578063c060396b14610198578063d96a094a146101b6578063f2fde38b146101d2576100a9565b8063118b48e5146100ae578063715018a6146100cd5780637f6d6df9146100d757806382367b2d146100f35780638da5cb5b1461010f575b600080fd5b6100b66101ee565b6040516100c49291906117a6565b60405180910390f35b6100d561021c565b005b6100f160048036038101906100ec9190611386565b6102a4565b005b61010d60048036038101906101089190611386565b610638565b005b610117610776565b6040516101249190611630565b60405180910390f35b61013561079f565b60405161014291906116ab565b60405180910390f35b6101656004803603810190610160919061135d565b6107c5565b005b610181600480360381019061017c919061135d565b61099b565b60405161018f929190611682565b60405180910390f35b6101a06109df565b6040516101ad9190611630565b60405180910390f35b6101d060048036038101906101cb919061135d565b610a05565b005b6101ec60048036038101906101e791906112e2565b610c35565b005b60048060000160009054906101000a900461ffff16908060000160029054906101000a900461ffff16905082565b610224610d2d565b73ffffffffffffffffffffffffffffffffffffffff16610242610776565b73ffffffffffffffffffffffffffffffffffffffff1614610298576040517f08c379a000000000000000000000000000000000000000000000000000000000815260040161028f90611746565b60405180910390fd5b6102a26000610d35565b565b6102ac610d2d565b73ffffffffffffffffffffffffffffffffffffffff16600260009054906101000a900473ffffffffffffffffffffffffffffffffffffffff1673ffffffffffffffffffffffffffffffffffffffff16636352211e846040518263ffffffff1660e01b815260040161031d91906117cf565b60206040518083038186803b15801561033557600080fd5b505afa158015610349573d6000803e3d6000fd5b505050506040513d601f19601f8201168201806040525081019061036d919061130b565b73ffffffffffffffffffffffffffffffffffffffff16146103c3576040517f08c379a00000000000000000000000000000000000000000000000000000000081526004016103ba90611726565b60405180910390fd5b600073ffffffffffffffffffffffffffffffffffffffff166006600084815260200190815260200160002060000160009054906101000a900473ffffffffffffffffffffffffffffffffffffffff1673ffffffffffffffffffffffffffffffffffffffff1614610468576040517f08c379a000000000000000000000000000000000000000000000000000000000815260040161045f90611706565b60405180910390fd5b6005548110156104ad576040517f08c379a00000000000000000000000000000000000000000000000000000000081526004016104a490611786565b60405180910390fd5b600260009054906101000a900473ffffffffffffffffffffffffffffffffffffffff1673ffffffffffffffffffffffffffffffffffffffff166323b872dd6104f3610d2d565b30856040518463ffffffff1660e01b81526004016105139392919061164b565b600060405180830381600087803b15801561052d57600080fd5b505af1158015610541573d6000803e3d6000fd5b505050506040518060400160405280610558610d2d565b73ffffffffffffffffffffffffffffffffffffffff168152602001828152506006600084815260200190815260200160002060008201518160000160006101000a81548173ffffffffffffffffffffffffffffffffffffffff021916908373ffffffffffffffffffffffffffffffffffffffff16021790555060208201518160010155905050816105e7610d2d565b73ffffffffffffffffffffffffffffffffffffffff167f6935191bc626032d8c74ced321b2d6a62df2578bf60599625cb4f59d51e3849f8360405161062c91906117cf565b60405180910390a35050565b6006600083815260200190815260200160002060000160009054906101000a900473ffffffffffffffffffffffffffffffffffffffff1673ffffffffffffffffffffffffffffffffffffffff1661068d610d2d565b73ffffffffffffffffffffffffffffffffffffffff16146106e3576040517f08c379a00000000000000000000000000000000000000000000000000000000081526004016106da90611726565b60405180910390fd5b60006006600084815260200190815260200160002060010154905081600660008581526020019081526020016000206001018190555082610722610d2d565b73ffffffffffffffffffffffffffffffffffffffff167f40a2e1011bc4b63fe019abc98ce43b9ae4a22f2072b84f3d14941dc1675979c283856040516107699291906117ea565b60405180910390a3505050565b60008060009054906101000a900473ffffffffffffffffffffffffffffffffffffffff16905090565b600260009054906101000a900473ffffffffffffffffffffffffffffffffffffffff1681565b6006600082815260200190815260200160002060000160009054906101000a900473ffffffffffffffffffffffffffffffffffffffff1673ffffffffffffffffffffffffffffffffffffffff1661081a610d2d565b73ffffffffffffffffffffffffffffffffffffffff1614610870576040517f08c379a000000000000000000000000000000000000000000000000000000000815260040161086790611726565b60405180910390fd5b60066000828152602001908152602001600020600080820160006101000a81549073ffffffffffffffffffffffffffffffffffffffff021916905560018201600090555050600260009054906101000a900473ffffffffffffffffffffffffffffffffffffffff1673ffffffffffffffffffffffffffffffffffffffff166323b872dd306108fc610d2d565b846040518463ffffffff1660e01b815260040161091b9392919061164b565b600060405180830381600087803b15801561093557600080fd5b505af1158015610949573d6000803e3d6000fd5b5050505080610956610d2d565b73ffffffffffffffffffffffffffffffffffffffff167f75935f771a42c6f29d92d3e4b9e660d3be7c210e3eb51e444a5b75d1b8c02b2760405160405180910390a350565b60066020528060005260406000206000915090508060000160009054906101000a900473ffffffffffffffffffffffffffffffffffffffff16908060010154905082565b600360009054906101000a900473ffffffffffffffffffffffffffffffffffffffff1681565b6006600082815260200190815260200160002060000160009054906101000a900473ffffffffffffffffffffffffffffffffffffffff1673ffffffffffffffffffffffffffffffffffffffff16610a5a610d2d565b73ffffffffffffffffffffffffffffffffffffffff161415610ab1576040517f08c379a0000000000000000000000000000000000000000000000000000000008152600401610aa8906116c6565b60405180910390fd5b600073ffffffffffffffffffffffffffffffffffffffff166006600083815260200190815260200160002060000160009054906101000a900473ffffffffffffffffffffffffffffffffffffffff1673ffffffffffffffffffffffffffffffffffffffff161415610b57576040517f08c379a0000000000000000000000000000000000000000000000000000000008152600401610b4e90611766565b60405180910390fd5b60006006600083815260200190815260200160002060000160009054906101000a900473ffffffffffffffffffffffffffffffffffffffff1690506000610b9c610d2d565b9050600080610baa85610df9565b91509150848373ffffffffffffffffffffffffffffffffffffffff168573ffffffffffffffffffffffffffffffffffffffff167f0a17d5337ce7a408b0c52c3c24fad9e1b8e2010b5aa295dbf9a1d5329588f326600660008a8152602001908152602001600020600101548686604051610c2693929190611813565b60405180910390a45050505050565b610c3d610d2d565b73ffffffffffffffffffffffffffffffffffffffff16610c5b610776565b73ffffffffffffffffffffffffffffffffffffffff1614610cb1576040517f08c379a0000000000000000000000000000000000000000000000000000000008152600401610ca890611746565b60405180910390fd5b600073ffffffffffffffffffffffffffffffffffffffff168173ffffffffffffffffffffffffffffffffffffffff161415610d21576040517f08c379a0000000000000000000000000000000000000000000000000000000008152600401610d18906116e6565b60405180910390fd5b610d2a81610d35565b50565b600033905090565b60008060009054906101000a900473ffffffffffffffffffffffffffffffffffffffff169050816000806101000a81548173ffffffffffffffffffffffffffffffffffffffff021916908373ffffffffffffffffffffffffffffffffffffffff1602179055508173ffffffffffffffffffffffffffffffffffffffff168173ffffffffffffffffffffffffffffffffffffffff167f8be0079c531659141344cd1fd0a4f28419497f9722a3daafe3b4186f6b6457e060405160405180910390a35050565b6000806000600460000160009054906101000a900461ffff1690506000600460000160029054906101000a900461ffff16905060006127108361ffff166006600089815260200190815260200160002060010154610e5791906118e2565b610e6191906118b1565b905060006127108361ffff16600660008a815260200190815260200160002060010154610e8e91906118e2565b610e9891906118b1565b9050816006600089815260200190815260200160002060010154610ebc919061193c565b9550806006600089815260200190815260200160002060010154610ee0919061185b565b9450600360009054906101000a900473ffffffffffffffffffffffffffffffffffffffff1673ffffffffffffffffffffffffffffffffffffffff166323b872dd610f28610d2d565b610f30610776565b856040518463ffffffff1660e01b8152600401610f4f9392919061164b565b602060405180830381600087803b158015610f6957600080fd5b505af1158015610f7d573d6000803e3d6000fd5b505050506040513d601f19601f82011682018060405250810190610fa19190611334565b50600360009054906101000a900473ffffffffffffffffffffffffffffffffffffffff1673ffffffffffffffffffffffffffffffffffffffff166323b872dd610fe8610d2d565b610ff0610776565b846040518463ffffffff1660e01b815260040161100f9392919061164b565b602060405180830381600087803b15801561102957600080fd5b505af115801561103d573d6000803e3d6000fd5b505050506040513d601f19601f820116820180604052508101906110619190611334565b50600360009054906101000a900473ffffffffffffffffffffffffffffffffffffffff1673ffffffffffffffffffffffffffffffffffffffff166323b872dd6110a8610d2d565b600660008b815260200190815260200160002060000160009054906101000a900473ffffffffffffffffffffffffffffffffffffffff16896040518463ffffffff1660e01b81526004016110fe9392919061164b565b602060405180830381600087803b15801561111857600080fd5b505af115801561112c573d6000803e3d6000fd5b505050506040513d601f19601f820116820180604052508101906111509190611334565b50600034146111a857611161610d2d565b73ffffffffffffffffffffffffffffffffffffffff166108fc349081150290604051600060405180830381858888f193505050501580156111a6573d6000803e3d6000fd5b505b600260009054906101000a900473ffffffffffffffffffffffffffffffffffffffff1673ffffffffffffffffffffffffffffffffffffffff166323b872dd306111ef610d2d565b8a6040518463ffffffff1660e01b815260040161120e9392919061164b565b600060405180830381600087803b15801561122857600080fd5b505af115801561123c573d6000803e3d6000fd5b5050505060066000888152602001908152602001600020600080820160006101000a81549073ffffffffffffffffffffffffffffffffffffffff02191690556001820160009055505050505050915091565b60008135905061129d81611a48565b92915050565b6000815190506112b281611a48565b92915050565b6000815190506112c781611a5f565b92915050565b6000813590506112dc81611a76565b92915050565b6000602082840312156112f457600080fd5b60006113028482850161128e565b91505092915050565b60006020828403121561131d57600080fd5b600061132b848285016112a3565b91505092915050565b60006020828403121561134657600080fd5b6000611354848285016112b8565b91505092915050565b60006020828403121561136f57600080fd5b600061137d848285016112cd565b91505092915050565b6000806040838503121561139957600080fd5b60006113a7858286016112cd565b92505060206113b8858286016112cd565b9150509250929050565b6113cb81611970565b82525050565b6113da816119c6565b82525050565b60006113ed601b8361184a565b91507f596f752063616e6e6f7420627579207768617420796f75206f776e00000000006000830152602082019050919050565b600061142d60268361184a565b91507f4f776e61626c653a206e6577206f776e657220697320746865207a65726f206160008301527f64647265737300000000000000000000000000000000000000000000000000006020830152604082019050919050565b6000611493601c8361184a565b91507f4974656d20686173206265656e206c697374656420616c7265616479000000006000830152602082019050919050565b60006114d360158361184a565b91507f596f7520617265206e6f7420746865206f776e657200000000000000000000006000830152602082019050919050565b600061151360208361184a565b91507f4f776e61626c653a2063616c6c6572206973206e6f7420746865206f776e65726000830152602082019050919050565b600061155360228361184a565b91507f4974656d20686173206e6f74206265656e206c69737465642063757272656e7460008301527f6c790000000000000000000000000000000000000000000000000000000000006020830152604082019050919050565b60006115b960288361184a565b91507f416d6f756e742063616e6e6f74206265206c657373207468616e206d696e696d60008301527f756d2070726963650000000000000000000000000000000000000000000000006020830152604082019050919050565b61161b8161198e565b82525050565b61162a816119bc565b82525050565b600060208201905061164560008301846113c2565b92915050565b600060608201905061166060008301866113c2565b61166d60208301856113c2565b61167a6040830184611621565b949350505050565b600060408201905061169760008301856113c2565b6116a46020830184611621565b9392505050565b60006020820190506116c060008301846113d1565b92915050565b600060208201905081810360008301526116df816113e0565b9050919050565b600060208201905081810360008301526116ff81611420565b9050919050565b6000602082019050818103600083015261171f81611486565b9050919050565b6000602082019050818103600083015261173f816114c6565b9050919050565b6000602082019050818103600083015261175f81611506565b9050919050565b6000602082019050818103600083015261177f81611546565b9050919050565b6000602082019050818103600083015261179f816115ac565b9050919050565b60006040820190506117bb6000830185611612565b6117c86020830184611612565b9392505050565b60006020820190506117e46000830184611621565b92915050565b60006040820190506117ff6000830185611621565b61180c6020830184611621565b9392505050565b60006060820190506118286000830186611621565b6118356020830185611621565b6118426040830184611621565b949350505050565b600082825260208201905092915050565b6000611866826119bc565b9150611871836119bc565b9250827fffffffffffffffffffffffffffffffffffffffffffffffffffffffffffffffff038211156118a6576118a56119ea565b5b828201905092915050565b60006118bc826119bc565b91506118c7836119bc565b9250826118d7576118d6611a19565b5b828204905092915050565b60006118ed826119bc565b91506118f8836119bc565b9250817fffffffffffffffffffffffffffffffffffffffffffffffffffffffffffffffff0483118215151615611931576119306119ea565b5b828202905092915050565b6000611947826119bc565b9150611952836119bc565b925082821015611965576119646119ea565b5b828203905092915050565b600061197b8261199c565b9050919050565b60008115159050919050565b600061ffff82169050919050565b600073ffffffffffffffffffffffffffffffffffffffff82169050919050565b6000819050919050565b60006119d1826119d8565b9050919050565b60006119e38261199c565b9050919050565b7f4e487b7100000000000000000000000000000000000000000000000000000000600052601160045260246000fd5b7f4e487b7100000000000000000000000000000000000000000000000000000000600052601260045260246000fd5b611a5181611970565b8114611a5c57600080fd5b50565b611a6881611982565b8114611a7357600080fd5b50565b611a7f816119bc565b8114611a8a57600080fd5b5056fea264697066735822122053505a5c4c9ba5cc939d2cf6b34cf7c6fd897a0fa8a22408a46df6bbd65701e664736f6c63430008000033",
  "immutableReferences": {},
  "source": "// SPDX-License-Identifier: MIT\npragma solidity ^0.8.0;\n\nimport \"@openzeppelin/contracts/access/Ownable.sol\";\nimport \"@openzeppelin/contracts/security/ReentrancyGuard.sol\";\nimport \"@openzeppelin/contracts/token/ERC20/IERC20.sol\";\nimport \"@openzeppelin/contracts/token/ERC721/IERC721.sol\";\nimport \"@openzeppelin/contracts/utils/Context.sol\";\n\nimport \"./MintableToken.sol\";\n\ncontract Marketplace is Ownable, ReentrancyGuard {\n    struct Item {\n        address owner;\n        uint256 price;\n    }\n\n    struct Fee {\n        uint16 seller;\n        uint16 buyer;\n    }\n\n    MintableToken public mintableToken;\n    address public wareToken;\n    Fee public defaultFees;\n    uint256 minimumPrice;\n\n    mapping(uint256 => Item) public items;\n\n    event Listing(address indexed owner, uint256 indexed nftId, uint256 price);\n\n    event Unlisting(address indexed owner, uint256 indexed nftId);\n\n    event Purchase(\n        address indexed previousOwner,\n        address indexed newOwner,\n        uint256 indexed nftId,\n        uint256 listingPrice,\n        uint256 sellerAmount,\n        uint256 buyerAmount\n    );\n\n    event PriceUpdated(\n        address indexed owner,\n        uint256 indexed nftId,\n        uint256 oldPrice,\n        uint256 newPrice\n    );\n\n    constructor(MintableToken _mintableToken, address _wareToken) {\n        mintableToken = _mintableToken;\n        wareToken = _wareToken;\n        defaultFees = Fee(500, 500);\n        minimumPrice = 0.001 ether;\n    }\n\n    function listing(uint256 _nftId, uint256 _amount) external {\n        require(\n            mintableToken.ownerOf(_nftId) == _msgSender(),\n            \"You are not the owner\"\n        );\n        require(\n            items[_nftId].owner == address(0),\n            \"Item has been listed already\"\n        );\n        require(\n            _amount >= minimumPrice,\n            \"Amount cannot be less than minimum price\"\n        );\n\n        mintableToken.transferFrom(_msgSender(), address(this), _nftId);\n\n        items[_nftId] = Item(_msgSender(), _amount);\n\n        emit Listing(_msgSender(), _nftId, _amount);\n    }\n\n    function unlisting(uint256 _nftId) external {\n        require(_msgSender() == items[_nftId].owner, \"You are not the owner\");\n\n        delete items[_nftId];\n\n        mintableToken.transferFrom(address(this), _msgSender(), _nftId);\n\n        emit Unlisting(_msgSender(), _nftId);\n    }\n\n    function buy(uint256 _nftId) external {\n        require(\n            _msgSender() != items[_nftId].owner,\n            \"You cannot buy what you own\"\n        );\n        require(\n            items[_nftId].owner != address(0),\n            \"Item has not been listed currently\"\n        );\n\n        address previousOwner = items[_nftId].owner;\n        address newOwner = _msgSender();\n\n        (uint256 sellerAmount, uint256 buyerAmount) = _trade(_nftId);\n\n        emit Purchase(\n            previousOwner,\n            newOwner,\n            _nftId,\n            items[_nftId].price,\n            sellerAmount,\n            buyerAmount\n        );\n    }\n\n    function _trade(uint256 _nftId)\n        private\n        returns (uint256 sellerAmount, uint256 buyerAmount)\n    {\n        uint16 sellerFee = defaultFees.seller;\n        uint16 buyerFee = defaultFees.buyer;\n\n        uint256 sellerFeeAmount = (items[_nftId].price * sellerFee) / 10000;\n        uint256 buyerFeeAmount = (items[_nftId].price * buyerFee) / 10000;\n\n        sellerAmount = items[_nftId].price - sellerFeeAmount;\n        buyerAmount = items[_nftId].price + buyerFeeAmount;\n\n        IERC20(wareToken).transferFrom(_msgSender(), owner(), sellerFeeAmount);\n        IERC20(wareToken).transferFrom(_msgSender(), owner(), buyerFeeAmount);\n        IERC20(wareToken).transferFrom(\n            _msgSender(),\n            items[_nftId].owner,\n            sellerAmount\n        );\n\n        if (msg.value != 0) {\n            payable(_msgSender()).transfer(msg.value);\n        }\n\n        mintableToken.transferFrom(address(this), _msgSender(), _nftId);\n\n        delete items[_nftId];\n    }\n\n    function updatePrice(uint256 _nftId, uint256 _price) external {\n        require(_msgSender() == items[_nftId].owner, \"You are not the owner\");\n\n        uint256 oldPrice = items[_nftId].price;\n        items[_nftId].price = _price;\n\n        emit PriceUpdated(_msgSender(), _nftId, oldPrice, _price);\n    }\n}\n",
  "sourcePath": "/Users/khanhtiet/Projects/Codelight/Warena_smartcontract/contracts/Marketplace.sol",
  "compiler": {
    "name": "solc",
    "version": "0.8.0+commit.c7dfd78e.Emscripten.clang"
  },
  "schemaVersion": "3.4.3",
  "updatedAt": "2021-10-06T02:42:55.496Z",
  "devdoc": {
    "kind": "dev",
    "methods": {
      "owner()": {
        "details": "Returns the address of the current owner."
      },
      "renounceOwnership()": {
        "details": "Leaves the contract without owner. It will not be possible to call `onlyOwner` functions anymore. Can only be called by the current owner. NOTE: Renouncing ownership will leave the contract without an owner, thereby removing any functionality that is only available to the owner."
      },
      "transferOwnership(address)": {
        "details": "Transfers ownership of the contract to a new account (`newOwner`). Can only be called by the current owner."
      }
    },
    "version": 1
  },
  "userdoc": {
    "kind": "user",
    "methods": {},
    "version": 1
  }
}